:1022B900000000C0C0000000000000303000000035
:1022C90000E010080810E000000F102020100F0097
:1022D900001010F8000000000020203F202000001E
:1022E9000070080808887000003028242221300076
:1022F90000300888884830000018202020110E007E
:102309000000C02010F8000000070424243F240026
:1023190000F80888880808000019212020110E00FB
:1023290000E0108888180000000F112020110E000D
:1023390000380808C83808000000003F0000000005
:102349000070880808887000001C222121221C00C6
:1023590000E010080810E0000000312222110F00EF
:10236900404080F0804040000202010F010202005B
:102379000000000000000000000000000000000054
:102389000000000000000000808080808080808044
:1023990000008040201008000001020408102000FD
:1023A900000000000000000080B070000000000084
:1023B900FE0202020212FA0202020202FE000000FA
:1023C9003F20202028282F28282020203F000000F7
:1023D900FE0202320A0A8A8A72020202FE00000022
:1023E9003F20202C2A2928282C2020203F000000CB
:1023F900FE02021A064646A61A020202FE00000062
:102409003F20202428282824232020203F000000C2
:10241900FE020282422212FA02020202FE000000B9
:102429003F20212121252527252520203F000000A7
:10243900000000FE020202FA8A4A4A8A020202FEE9
:102449000000003F20202026282828242320203F80
:10245900000000FE020202FA8646468E020202FED1
:102469000000003F20202027282828242320203F5F
:10247900000000FE0202021A0A0ACA3A020202FE19
:102489000000003F20202020202F20202020203F56
:10249900000000FE020202324A8A8A4A320202FE21
:1024A9000000003F20202026292828292620203F17
:1024B900FEFEFEFEFEFEFEFEFEFEFEFEFE0000002D
:1024C9003F3F3F3F3F3F3F3F3F3F3F3F3F000000D0
:1024D90004244484649C40300FC80808281800006C
:1024E90010080601824C20180601061820408000B9
:1024F900404042CC0000FC040200FC0404FC000043
:102509000040201F20404F4442407F424443400046
:102519004040424458C0407F40C050484640400077
:102529008080402018070000003F4040404078006C
:1025390000F80000FF4020180F1868080808080074
:10254900001F0000FF00007F21213F21217F0000A3
:10255900484AFA0AFE09F949A80000F00000FF00FC
:1025690022110B04FF0409122300000F40807F0091
:1025790080804020504844C3444850204080800017
:102589000040221A0242827F0202020A12600000FF
:1025990020908C87EC948414C847444C54C404009C
:1025A90040201806FF041800FF92929292FF000043
:1025B90080828282828282E2A2928A8682808000DE
:1025C900000000000040807F0000000000000000C3
:1025D900008060F80710901011161010D01000003C
:1025E900010000FF4040415E4040704E41404000C4
:1025F900886423A2A6AAA2BAA4A3A2262AA2620038
:10260900000000FF4A4A4A4A4A4A4BF800000000C3
:10261900048484FC848400FE9292FE9292FE00005F
:102629002060201F1010404444447F44444440002B
:102639000000C05E525252525252525EC000000017
:1026490080808F404020100E101020204F80000005
:10265900404042CC0040A09E8282829EA020200061
:102669000000003F908840432C102846418080009C
:10267900001715D55557557D555755D515170000D0
:102689004040407F555555555555557F4040400070
:10269900040484E41C0724242424A46424040400DA
:1026A900020100FF00020242827F020202020200CE
:1026B9000202FE929292FE0206FC040404FC00004F
:1026C90008180F080804FF048440271827408000D1
:1026D900403C10FF101020108F7808F808F800000F
:1026E900020602FF0101044221184681403F000011
:1026F9000000F80000FF202000FF40201008000023
:1027090020603F20101F1010003F404040407800DB
:102719001010D0FF901000FE2222222222E2020095
:10272900040300FF0003007F44444444444740003D
:102739000000E28282828282828282FE00000000A0
:1027490000003F4040404040404040404078000049
:102759001060028C0024242FE42424E42F24240074
:1027690004047E0100FF11090719090749917F0037
:10277900108C4404E40495A64424148444940C0065
:1027890002027A414143427E42424243F80000003C
:102799000484E45C44C40002F2828282FE808000E8
:1027A90002017F10103F00080808084888403F00D0
:1027B90088681FC80810C85452D1129408D0100054
:1027C900091909FF0500FF1292FF005F807F0000D1
:1027D900000000000001E21CE00000000000000011
:1027E900804020100C03000000030C304080800062
:1027F9004042CC0000445454547F54545444400043
:1028090000007F201000FF15151555957F00000069
:102819001060028C00445454547F54545444400072
:1028290004047E010000FF15151555957F00000071
:10283900101010FF9020988888E98E8888A8980041
:102849000242817F000080844B28102847800000C5
:1028590000101011F61010101010F41310100000D1
:10286900028242320F0202020202FF020202020047
:10287900020202020202FE02024282020202020075
:10288900000000000000FF00000000010600000039
:102899000484E45C44C42010E82724E4342CE000D8
:1028A90002017F10103F80601F09093F49897F009D
:1028B900404042CC0000000000FF00000000000082
:1028C9000000003F904820180700071820408000AA
:1028D9004030EF242480E49C105454FF547C1000B1
:1028E90001017F21512618274445455F454544008C
:1028F900100C4444444445C64444444444140C0024
:102909008040201E2040407F4444444444404000CD
:10291900808080BEA2A2A2A2A2A2A2BE80808000C4
:1029290000000006050404044484443C000000003F
:102939002030AC631000FE485040FF405048000072
:102949002267221212007F4442417F4142444000E3
:102959002030AC6320182024A4243FA424A46000C0
:10296900226722121212888A4C29180F1828C800C7
:102979000000F8888888880808FF08090AC808003C
:1029890080601F0010201F80402116182641F80082
:10299900080808F80808081010FF101010F00000C7
:1029A9001030101F088848300E014080403F000059
:1029B900201008FC2310886704F40424548C0000B8
:1029C90040300077808188B2848380E00011600004
:1029D900100C04E4848485F68484848484140C00B3
:1029E900080A0908080808FF08080808080808006C
:1029F900404042CC0000008484848484FC000000B0
:102A09000000007F2010003F4040404041407000DE
:102A190000F80106000002020202020202FE0000A2
:102A290000FF00000000000000000040807F00005F
:102A390080828282FE8282828282FE8282828000FB
:102A4900008040300F0000000000FF00000000007F
:102A590000020C80608040300FC808082818000068
:102A690002027E01804020180601061820408000DD
:102A79000202F292929292FE92929292F2020200D3
:102A89000404FF0404040407040444847F040400C8
:102A990020202020202021222C202020202020003E
:102AA900004020100C03000000010204186000001F
:102AB90000008A52225A464047582452880400008E
:102AC9000141404F596949494969594F40410100FC
:102AD9008080829292929292929292FE808080005D
:102AE900404022241048807F0408182422404000D6
:102AF9000040301E101010FF1010101010000000C0
:102B090081814121110D0301030D112141818100B1
:102B190000FE02FA02FE4020D8171010F010100033
:102B29008047300F10678040211608162140800029
:102B3900000000FE929292FE929292FE0000000026
:102B490008080484621E010001FE0204040808004A
:102B59000202E22222F22E2222E22222E2020200D2
:102B69000000FF40407F4949497F4040FF00000085
:102B79008080C0C0E0A090808080808080808000BC
:102B89000000010103020400000000000000000031
:102B99000202F292929292FE92929292F2020200B2
:102BA9008080874C5424344F444484848780800037
:102BB9000484848484FC4030CC0B0808F80808009D
:102BC900007F20101008804021160816214080003F
:102BD900404042CC00504EC8487FC8484840000099
:102BE9000040201F20504C4340404F50505C400053
:102BF9001010FF100082864A52A2524A8680800035
:102C090042827F010010121212FF121212100000EC
:102C19000008488808C83800901010FF10101000EC
:102C29000020100C030418000043807F00000000FE
:102C39000000FC0444840425C604040404E40400DC
:102C490040300F4040414E404063504C43404000AB
:102C5900101010FF109000FE9292929292FE0000C6
:102C69000444827F0180423A4282FE92929282001B
:102C790040404242424242C24242424242404000F5
:102C8900201008060040807F000000020408300080
:102C9900106002CC8040201E0202023E40404000EB
:102CA90004047E018080834D512151498780800031
:102CB90004040484E43C2724242424E404040400B4
:102CC90004020100FF0909090949897F0000000080
:102CD900404042CC2020AEAAAABFAAAAAE2020001A
:102CE9000040201F20406750484648506740400038
:102CF900040404FC84848586848484848404040014
:102D0900403800003C4040424C40407004083000CC
:102D190000000000000000000000000000000000AA
:102D2900000058380000000000000000000000000A
:102D3900000000000000000000000000000000008A
:102D49000000182424180000000000000000000002
:102D59004030EF246448487F4848487F484840004D
:102D690001017F211100FF4949494949FF0000003C
:102D79004042CC0000809E92929292929E800000E6
:102D890000007F2094844424140F14244484840074
:102D990002FE9292FE0200101116F01413100000A8
:102DA900101F0808FF048141310D030D31418100D5
:102DB900000022322AA6A262211109810100000025
:102DC900004222130B42827E02020A1223460000AD
:103B7000015D00C101015C00015E10015F00C10236
:103B800001520046000C000000000000460000004A
:103B90000000000000014A00C10301490001530078
:103BA000015100C1800160000161000162000163F8
:0D3BB00000016400016500014700014800AC
:103E2200C280D28175A0FFD282AFA0C282EF20E70A
:013E3200F39C
:013E3300226C
:053DDC0024B8FFD20431
:103DE100C280C281A204B39284A20492838FA0D222
:053DF1008200C28222E5
:063D64001238C5FFD20475
:103D6A00AE07123E22D280C281A204B39284A20478
:0A3D7A0092838EA0D28200C2822242
:103CD4000000C2047F3F123DE1C2047FC0123DE1F7
:103CE400C2047FB8123DE1C2047F40123DE1D20418
:103CF4001F123DE1D2047FC0123DE1D2047FB8120D
:093D04003DE1D2047F40023DE1E3
:0A3A4B008B088A09890A8C0B8D0C88
:103A5500E4F50FC3E50F950CE4950B5063E50D24D4
:103A6500B8FFC204123DE1E50D123DDCE50E250F60
:103A7500FFE433FEC3EF9440EE64809480E50E507E
:103A85001E2440250FFFC204123DE1AB08AA09A977
:103A95000A850F827583001238C5FFC204801A2576
:103AA5000FFFD204123DE1AB08AA09A90A850F82CE
:103AB5007583001238C5FFD204123D6A050F809345
:013AC50022DE
:0639C6008B108A1189122A
:1039CC00E4F513E51324B8FFC204123DE1C2047FF1
:1039DC0040123DE1E4F514AB10AA11A91275F08068
:1039EC00E513A42514F582E435F0F5831238C5FFF0
:1039FC00C204123D6A0514E514C3944040D9E51382
:103A0C00123DDCD2047F40123DE1E4F514E5137560
:103A1C00F080A42440FFE435F0FEE5142FF582E499
:103A2C003EF583AB10AA11A912123D640514E514DE
:0E3A3C00C3944040D80513E513C39408408599
:013A4A002259
:0F3C5100FFE52204FDAB23AA24A9251238C5FBE9
:103C6000AE07AC03EEC39440ED501724B8FFC20476
:103C7000123DE1EE2440FFC204123DE1AF04C20454
:103C8000800E123DDCAF06D204123DE1AF04D20437
:043C9000123D6A2255
:063D0D008B158A168917D0
:103D1300E4FDED123DDCD2047F54123DE1E4FCAB43
:103D230015AA16A91775F02CEDA42CF582E435F02D
:0D3D3300F583123D640CBC2CE60DBD08D5D7
:013D40002260
:103DF600E4FAE4F9AF01AD02E4FB123C6009B980D4
:053E0600F30ABA08ED0B
:013E0B002294
:103E0C00EF1FAA0670011E4A600BE4FDEDC3947D02
:053E1C0050EE0D80F7DF
:013E2100227E
:053EBF00123EC4D28692
:053EC4000000000022D7
:0C3E9C00D287D286123EC4C287023EC408
:0C3EA800C287D286123EC4D287023EC4FC
:083E4600123E9C7FA0123D8496
:083E4E00C287123EBFC28622AA
:08000300D287123EBFC2862223
:103D84007E08AD07C286123EC4ED30E704D28780B8
:0E3D940002C287D286EF25E0FDFFDEE6C28682
:013DA20022FE
:103D4100E4FFFE7D08D287C286123EBF308705435D
:103D5100070180035307FEED146005EF25E0FEFF28
:023D6100DDE59E
:013D6300223D
:023C94008D376A
:103C96008B398A3A893BE4FCECC39538502F123EA7
:103CA60046E5372CFF123D84123E4EAB39AA3AA99F
:103CB6003B8C827583001238C5FF123D84123E4E3E
:0D3CC600123EA87F147E00123E0C0C80CB35
:013CD30022CE
:023C0B008D2406
:103C0D008B268A278928E4FCECC395255035123E76
:103C1D0046E5242CFF123D84123E4E123E9C7FA1A0
:103C2D00123D84123E4E123D41AB26AA27A9288C87
:103C3D0082758300EF1238F2C286120003123EA87D
:033C4D000C80C523
:013C50002251
:083EC9008F993099FDC2992286
:0B3EB400EF1FAC0670011E4C70F622E0
:103BBE0090000CE0FFA3E0FD7C00A3E0FB7A00A3E5
:103BCE00E0752600F527A3E0752800F529A3E0751A
:0B3BDE002A00F52BE552752C00F52D98
:103BE9008F2E8D2F8B30852731852932852B337B7D
:103BF900007A00792EE52D75F006A4FD75380602C8
:023C09003C94E9
:103E34007B017A007900EF75F006A4FD7525060272
:023E44003C0B35
:0E3E56007B007A0079547538087D64023C9434
:0E3E64007B007A0079547525087D64023C0BC2
:0E3E72007B007A00794B7538067D78023C940F
:0E3E80007B007A00794B7525067D78023C0B9D
:0836F6007BFF7A2279B97D0403
:0A36FE008F218D228B238A24892559
:10370800E4FFAB23AA24A9258F827583001238C54C
:10371800FE74262FF8A6060FBF10E7AB26AD22AF22
:1037280021123C60E52104FFAB27AD22123C60E585
:10373800212402FFAB28AD22123C60E5212403FFBF
:10374800AB29AD22123C60E5212404FFAB2AAD224F
:10375800123C60E5212405FFAB2BAD22123C60E54D
:10376800212406FFAB2CAD22123C60E5212407FF83
:10377800AB2DAD22123C60E52204FDAB2EAF211229
:103788003C60E52104FFE52204FDAB2F123C60E517
:10379800212402FFE52204FDAB30123C60E5212420
:1037A80003FFE52204FDAB31123C60E5212404FF50
:1037B800E52204FDAB32123C60E5212405FFE52239
:1037C80004FDAB33123C60E5212406FFE52204FD2D
:1037D800AB34123C60E5212407FFE52204FDAB353C
:0337E800023C6040
:0A341E007A2779997BFF7D067F2055
:0A3428008F218D228B238A24892531
:10343200E4FFF526AB23AA24A9258F827583001207
:1034420038C5FE74272FF8A6060FBF20E7AB23AAC4
:1034520024A9251238ACFBAD22AF21123C60E52134
:1034620004FFAB23AA24A9259000011238C5FBADA5
:1034720022123C60E5212402FFAB23AA24A9259055
:1034820000021238C5FBAD22123C60E5212403FF85
:10349200AB23AA24A9259000031238C5FBAD221242
:1034A2003C60E5212404FFAB23AA24A92590000453
:1034B2001238C5FBAD22123C60E5212405FFAB2387
:1034C200AA24A9259000051238C5FBAD22123C6042
:1034D200E5212406FFAB23AA24A925900006123871
:1034E200C5FBAD22123C60E5212407FFAB23AA24D1
:1034F200A9259000071238C5FBAD22123C60E521D8
:103502002408FFAB23AA24A9259000081238C5FB82
:10351200AD22123C60E5212409FFAB23AA24A92590
:103522009000091238C5FBAD22123C60E521240A45
:10353200FFAB23AA24A92590000A1238C5FBAD22AD
:10354200123C60E521240BFFAB23AA24A92590009D
:103552000B1238C5FBAD22123C60E521240CFFABF7
:1035620023AA24A92590000C1238C5FBAD22123CD7
:1035720060E521240DFFAB23AA24A92590000D129A
:1035820038C5FBAD22123C60E521240EFFAB23AA15
:1035920024A92590000E1238C5FBAD22123C60E52D
:1035A20021240FFFAB23AA24A92590000F1238C5AE
:1035B200FBAD22123C60E52204FDAB23AA24A9251F
:1035C2009000101238C5FBAF21123C60E521049037
:1035D2000011123C51E5212402900012123C51E5E7
:1035E200212403FFE52204FDAB23AA24A925900090
:1035F20013123C5CE5212404FFE52204FDAB23AA5F
:1036020024A925900014123C5CE5212405FFE52243
:1036120004FDAB23AA24A925900015123C5CE521E8
:103622002406FFE52204FDAB23AA24A92590001657
:10363200123C5CE5212407FFE52204FDAB23AA240A
:10364200A925900017123C5CE5212408FFE522041D
:10365200FDAB23AA24A925900018123C5CE5212485
:1036620009FFE52204FDAB23AA24A9259000191223
:103672003C5CE521240AFFE52204FDAB23AA24A930
:103682002590001A123C5CE521240BFFE52204FD83
:10369200AB23AA24A92590001B123C5CE521240C33
:1036A200FFE52204FDAB23AA24A92590001C123CAD
:1036B2005CE521240DFFE52204FDAB23AA24A92504
:1036C20090001D123C5CE521240EFFE52204FDABB7
:1036D20023AA24A92590001E123C5CE521240FFF99
:1036E200E52204FDAB23AA24A92590001F1238C5A8
:0436F200FB023C603B
:10000E00E55165536009855351123DF6E4F54AE515
:10001E00536003020290F54AE5547BFF70067A2383
:10002E0079B980057A2479B9E4FDFF123428E555B3
:10003E007BFF70087A2379D97D0280077A2479B9FB
:10004E007D02E4FF123428E5567BFF70087A23798F
:10005E00F97D0480077A2479B97D04E4FF123428EF
:10006E00E5577BFF70087A2479197D0680077A247C
:10007E0079B97D06E4FF123428E5587BFF70067AC5
:10008E0024793980057A2479B9E4FD7F70123428F9
:10009E00E5597BFF70067A24795980047A2479B960
:1000AE007D027F70123428E55A7BFF70067A247920
:1000BE007980047A2479B97D047F70123428E55B47
:1000CE007BFF70067A24799980047A2479B97D06AB
:1000DE007F701234287BFF7A2479D9E4FD7F2012B9
:1000EE0034287BFF7A2479F9E4FD7F301234287BA3
:1000FE00FF7A257919E4FD7F401234287BFF7A259B
:10010E007939E4FD7F50123428E5542555255625BE
:10011E005725582559255A255BFFC374089FF54965
:10012E00700302025C7BFF7A2579597D027F2012D3
:10013E0034287BFF7A2579797D027F301234287B33
:10014E00FF7A2579997D027F401234287BFF7A222F
:10015E0079B97D027F501236FEE54914B40800507D
:10016E006B90017D75F003A4C58325F0C5837302E2
:10017E00019502019D0201A50201AD0201B5020128
:10018E00BD0201C50201CD7BFF7A2279D980367B73
:10019E00FF7A2279E9802E7BFF7A2279F980267BFD
:1001AE00FF7A237909801E7BFF7A23791980167BCB
:1001BE00FF7A237929800E7BFF7A23793980067B9B
:1001CE00FF7A2379497D027F581236FE7BFF7A260D
:1001DE0079997D047F181234287BFF7A2679D97D90
:1001EE00047F281234287BFF7A2779F97D047F3823
:1001FE001234287BFF7A2879397D047F48123428FF
:10020E007BFF7A2679997D047F581234287BFF7AFA
:10021E002679B97D067F181234287BFF7A2679D984
:10022E007D067F281234287BFF7A2779F97D067F99
:10023E00381234287BFF7A2879397D067F481234AC
:10024E00287BFF7A2679B97D067F580222B57BFF7F
:10025E007A2679F97D027F201234287BFF7A27795E
:10026E00197D027F301234287BFF7A2779397D027F
:10027E007F401234287BFF7A2779597D027F500206
:10028E0022B5E553640160030205237BFF7A2779CB
:10029E00F9FD7F081234287BFF7A267959E4FD7F19
:1002AE00181234287BFF7A267979E4FD7F281234E0
:1002BE00287BFF7A2A7999E4FD7F381234287BFF58
:1002CE007A2579D9E4FD7F481234287BFF7A277985
:1002DE0079E4FD7F581234287BFF7A277999E4FD63
:1002EE007F681234287BFF7A2879597D02E4FF1249
:1002FE0034287BFF7A2879397D027F101234287BCF
:10030E00FF7A2879797D027F201234287BFF7A28A4
:10031E0079997D027F301234287BFF7A2879B97D56
:10032E00027F401234287BFF7A2879D97D027F50D4
:10033E001234287BFF7A2879997D027F6012342847
:10034E007BFF7A2879F97D027F70123428E55D757E
:10035E00F00A8475F00A84E5F0B40A00507A90032E
:10036E0073F82828730203910203990203A1020372
:10037E00A90203B10203B90203C10203C90203D1E8
:10038E000203D97BFF7A2279C980467BFF7A2279D4
:10039E00D9803E7BFF7A2279E980367BFF7A2279FB
:1003AE00F9802E7BFF7A23790980267BFF7A2379C9
:1003BE0019801E7BFF7A23792980167BFF7A237999
:1003CE0039800E7BFF7A23794980067BFF7A237969
:1003DE00597D047F381236FEE55D75F00A84E5F02E
:1003EE00B40A00507A9003FAF8282873020418020F
:1003FE0004200204280204300204380204400204DD
:10040E00480204500204580204607BFF7A2279C924
:10041E0080467BFF7A2279D9803E7BFF7A2279E96A
:10042E0080367BFF7A2279F9802E7BFF7A23790939
:10043E0080267BFF7A237919801E7BFF7A23792908
:10044E0080167BFF7A237939800E7BFF7A237949D8
:10045E0080067BFF7A2379597D047F401236FE7B1E
:10046E00FF7A2779797D067F1012342812341E7B8D
:10047E00FF7A2279B97D067F301236FEE54AC394A3
:10048E00017BFF40067A23796980047A2379797D8E
:10049E00067F381236FEE54AC394027BFF40067A89
:1004AE0023796980047A2379797D067F401236FE9E
:1004BE00E54AC394037BFF40067A23796980047A68
:1004CE002379797D067F481236FEE54AC394047B74
:1004DE00FF40067A23796980047A2379797D067F35
:1004EE00501236FEE54AC394057BFF40067A237907
:1004FE006980047A2379797D067F581236FEE54AA3
:10050E00C394067BFF40077A2379690210BF7A23D2
:10051E0079790210BFE553640260030207CD7BFFB9
:10052E007A2779F9FD7F081234287BFF7A2779B96B
:10053E00E4FD7F181234287BFF7A2779D9E4FD7FFA
:10054E00281234287BFF7A2679B9E4FD7F381234DD
:10055E00287BFF7A2679D9E4FD7F481234287BFF69
:10056E007A257999E4FD7F581234287BFF7A297910
:10057E0019E4FD7F681234287BFF7A2879597D02B1
:10058E00E4FF1234287BFF7A2879397D027F10121E
:10059E0034287BFF7A2879797D027F201234287BDC
:1005AE00FF7A2879997D027F301234287BFF7A28D2
:1005BE0079B97D027F401234287BFF7A2879D97D64
:1005CE00027F501234287BFF7A2979397D027F60B1
:1005DE001234287BFF7A2979597D027F70123428D4
:1005EE00E55D75F00A8475F00A84E5F0B40A0050F2
:1005FE007A900606F828287302062402062C0206B4
:10060E003402063C02064402064C02065402065C04
:10061E0002066402066C7BFF7A2279C980467BFF54
:10062E007A2279D9803E7BFF7A2279E980367BFF68
:10063E007A2279F9802E7BFF7A23790980267BFF37
:10064E007A237919801E7BFF7A23792980167BFF06
:10065E007A237939800E7BFF7A23794980067BFFD6
:10066E007A2379597D047F381236FEE55D75F00ADE
:10067E0084E5F0B40A00507A90068DF828287302AB
:10068E0006AB0206B30206BB0206C30206CB020687
:10069E00D30206DB0206E30206EB0206F37BFF7AC9
:1006AE002279C980467BFF7A2279D9803E7BFF7AF8
:1006BE002279E980367BFF7A2279F9802E7BFF7AC8
:1006CE0023790980267BFF7A237919801E7BFF7A96
:1006DE0023792980167BFF7A237939800E7BFF7A66
:1006EE0023794980067BFF7A2379597D047F401256
:1006FE0036FE7BFF7A2579997D067F281234287B7A
:10070E00FF7A2979197D067F381234287BFF7A22E9
:10071E0079B97D067F481236FEE54A70137BFF30AD
:10072E0001077A237989020CA57A237979020CA51F
:10073E00E55275F00A84E5F0B40A0040030222B8CF
:10074E00900755F828287302077302077C02078565
:10075E0002078E0207970207A00207A90207B2023C
:10076E0007BB0207C47BFF7A2279C9020CA57BFF67
:10077E007A2279D9020CA57BFF7A2279E9020CA59F
:10078E007BFF7A2279F9020CA57BFF7A2379090285
:10079E000CA57BFF7A237919020CA57BFF7A2379AE
:1007AE0029020CA57BFF7A237939020CA57BFF7AEF
:1007BE00237949020CA57BFF7A237959020CA5E512
:1007CE005364036003020A5F7BFF7A2779F9FD7F8A
:1007DE00081234287BFF7A2779B9E4FD7F1812348A
:1007EE00287BFF7A2779D9E4FD7F281234287BFFF6
:1007FE007A2679B9E4FD7F381234287BFF7A267980
:10080E00D9E4FD7F481234287BFF7A277979E4FDFD
:10081E007F581234287BFF7A277999E4FD7F68127E
:10082E0034287BFF7A2879597D02E4FF1234287B25
:10083E00FF7A2879397D027F101234287BFF7A28BF
:10084E0079797D027F201234287BFF7A2879997D71
:10085E00027F301234287BFF7A2879B97D027F40DF
:10086E001234287BFF7A2879D97D027F50123428E2
:10087E007BFF7A2879997D027F601234287BFF7A7C
:10088E002879F97D027F70123428E55D75F00A84AF
:10089E0075F00A84E5F0B40A00507A9008B0F82892
:1008AE0028730208CE0208D60208DE0208E6020805
:1008BE00EE0208F60208FE02090602090E020916E9
:1008CE007BFF7A2279C980467BFF7A2279D9803ED6
:1008DE007BFF7A2279E980367BFF7A2279F9802EA6
:1008EE007BFF7A23790980267BFF7A237919801E74
:1008FE007BFF7A23792980167BFF7A237939800E44
:10090E007BFF7A23794980067BFF7A2379597D0410
:10091E007F381236FEE55D75F00A84E5F0B40A0004
:10092E00507A900937F828287302095502095D029A
:10093E00096502096D02097502097D020985020920
:10094E008D02099502099D7BFF7A2279C980467B2B
:10095E00FF7A2279D9803E7BFF7A2279E980367B35
:10096E00FF7A2279F9802E7BFF7A23790980267B04
:10097E00FF7A237919801E7BFF7A23792980167BD3
:10098E00FF7A237939800E7BFF7A23794980067BA3
:10099E00FF7A2379597D047F401236FE7BFF7A273A
:1009AE0079797D067F1012342812341E7BFF7A224D
:1009BE0079B97D067F301236FEE54AC394017BFF7E
:1009CE0040067A23796980047A2379797D067F3807
:1009DE001236FEE54AC394027BFF40067A237969FC
:1009EE0080047A2379797D067F401236FEE54AC36C
:1009FE0094037BFF40067A23796980047A23797900
:100A0E007D067F481236FEE54AC394047BFF4006FE
:100A1E007A23796980047A2379797D067F5012369C
:100A2E00FEE54AC394057BFF40067A23796980046C
:100A3E007A2379797D067F581236FEE54AC39406ED
:100A4E007BFF40067A23796980047A237979021034
:100A5E00BFE55364046003020CAC7BFF7A267999E0
:100A6E00FD7F201234287BFF7A2679D9E4FD7F3072
:100A7E001234287BFF7A297979E4FD7F40123428DD
:100A8E007BFF7A297999E4FD7F501234287BFF7A17
:100A9E002779F97D027F101234287BFF7A2979B9E4
:100AAE007D027F201234287BFF7A2979D97D027F3F
:100ABE00301234287BFF7A2979F97D027F40123477
:100ACE00287BFF7A2779797D027F501234287BFFAD
:100ADE007A2779997D027F60123428E55D75F00AD8
:100AEE008475F00A84E5F0B40A00507A900B01F890
:100AFE00282873020B1F020B27020B2F020B370243
:100B0E000B3F020B47020B4F020B57020B5F020B00
:100B1E00677BFF7A2279C980467BFF7A2279D9805A
:100B2E003E7BFF7A2279E980367BFF7A2279F98043
:100B3E002E7BFF7A23790980267BFF7A2379198011
:100B4E001E7BFF7A23792980167BFF7A23793980E1
:100B5E000E7BFF7A23794980067BFF7A2379597DB4
:100B6E00047F381236FEE55D75F00A84E5F0B40AAE
:100B7E0000507A900B88F8282873020BA6020BAE51
:100B8E00020BB6020BBE020BC6020BCE020BD60236
:100B9E000BDE020BE6020BEE7BFF7A2279C9804652
:100BAE007BFF7A2279D9803E7BFF7A2279E98036E3
:100BBE007BFF7A2279F9802E7BFF7A2379098026B2
:100BCE007BFF7A237919801E7BFF7A237929801681
:100BDE007BFF7A237939800E7BFF7A237949800651
:100BEE007BFF7A2379597D047F401236FE7BFF7A94
:100BFE002579997D067F281234287BFF7A29791969
:100C0E007D067F381234287BFF7A2279B97D067FE4
:100C1E00481236FEE55275F00A84E5F0B40A00403B
:100C2E00030222B8900C39F8282873020C57020CD4
:100C3E005F020C67020C6F020C77020C7F020C87AE
:100C4E00020C8F020C97020C9F7BFF7A2279C980CF
:100C5E00467BFF7A2279D9803E7BFF7A2279E98022
:100C6E00367BFF7A2279F9802E7BFF7A23790980F1
:100C7E00267BFF7A237919801E7BFF7A23792980C0
:100C8E00167BFF7A237939800E7BFF7A2379498090
:100C9E00067BFF7A2379597D067F50021A64E5534D
:100CAE0064056003020DEB7BFF7A2679B9FD7F2088
:100CBE001234287BFF7A2679D9E4FD7F301234284E
:100CCE007BFF7A297979E4FD7F401234287BFF7A05
:100CDE00297999E4FD7F50123428E55275F00A8483
:100CEE00E5F0B40A00507A900CFCF8282873020D37
:100CFE001A020D22020D2A020D32020D3A020D4287
:100D0E00020D4A020D52020D5A020D627BFF7A222B
:100D1E0079C980467BFF7A2279D9803E7BFF7A2281
:100D2E0079E980367BFF7A2279F9802E7BFF7A2350
:100D3E00790980267BFF7A237919801E7BFF7A231F
:100D4E00792980167BFF7A237939800E7BFF7A23EF
:100D5E00794980067BFF7A2379597D027F181236F6
:100D6E00FE7BFF7A2579997D027F201234287BFF46
:100D7E007A2A79197D027F301234287BFF7A2779FF
:100D8E00397D027F401234287BFF7A2A79397D0221
:100D9E007F501234287BFF7A2479D97D067F10127A
:100DAE0034287A2479F91234227BFF7A2A79797DD4
:100DBE00067F301234287BFF7A2A79597D067F40D0
:100DCE001234287BFF7A2579197D067F501234283C
:100DDE007BFF7A2579397D067F600222B5E5536463
:100DEE00066003020EB27BFF7A267999FD7F2012F0
:100DFE0034287BFF7A2679D9E4FD7F301234287BA4
:100E0E00FF7A2A79F9E4FD7F401234287BFF7A2B92
:100E1E007919E4FD7F501234287BFF7A2279D97D2F
:100E2E00027F181236FE7BFF7A2579997D027F208C
:100E3E001234287BFF7A2A79197D027F30123428EA
:100E4E007BFF7A2779397D027F401234287BFF7A27
:100E5E002A79397D027F501234287BFF7A2479D982
:100E6E007D067F101234287BFF7A2479F912342400
:100E7E007BFF7A2A79797D067F301234287BFF7AC0
:100E8E002A79597D067F401234287BFF7A257919FD
:100E9E007D067F501234287BFF7A2579397D067FB7
:100EAE00600222B5E553640760030210C67BFF7A29
:100EBE002579F9FD7F181234287BFF7A267919E4FB
:100ECE00FD7F281234287BFF7A267939E4FD7F389E
:100EDE001234287BFF7A2A79B9E4FD7F4812342830
:100EEE007BFF7A2A79D9E4FD7F58123428E55D75A7
:100EFE00F00A8475F00A84E5F0B40A00507A900F77
:100F0E0013F8282873020F31020F39020F41020F16
:100F1E0049020F51020F59020F61020F69020F7140
:100F2E00020F797BFF7A2279C980467BFF7A22797C
:100F3E00D9803E7BFF7A2279E980367BFF7A22794F
:100F4E00F9802E7BFF7A23790980267BFF7A23791D
:100F5E0019801E7BFF7A23792980167BFF7A2379ED
:100F6E0039800E7BFF7A23794980067BFF7A2379BD
:100F7E00597D047F381236FEE55D75F00A84E5F082
:100F8E00B40A00507A900F9AF8282873020FB8020C
:100F9E000FC0020FC8020FD0020FD8020FE0020FCF
:100FAE00E8020FF0020FF80210007BFF7A2279C9D7
:100FBE0080467BFF7A2279D9803E7BFF7A2279E9BF
:100FCE0080367BFF7A2279F9802E7BFF7A2379098E
:100FDE0080267BFF7A237919801E7BFF7A2379295D
:100FEE0080167BFF7A237939800E7BFF7A2379492D
:100FFE0080067BFF7A2379597D047F401236FE7B73
:10100E00FF7A2779797D067F1012342812341E7BE1
:10101E00FF7A2279B97D067F301236FEE54AC394F7
:10102E00017BFF40067A23796980047A2379797DE2
:10103E00067F381236FEE54AC394027BFF40067ADD
:10104E0023796980047A2379797D067F401236FEF2
:10105E00E54AC394037BFF40067A23796980047ABC
:10106E002379797D067F481236FEE54AC394047BC8
:10107E00FF40067A23796980047A2379797D067F89
:10108E00501236FEE54AC394057BFF40067A23795B
:10109E006980047A2379797D067F581236FEE54AF7
:1010AE00C394067BFF40067A23796980047A2379FC
:1010BE00797D067F60021A64E553640860030212AC
:1010CE00CB7BFF7A2579F9FD7F181234287BFF7AC6
:1010DE00267919E4FD7F281234287BFF7A26793988
:1010EE00E4FD7F381234287BFF7A2B7939E4FD7FBB
:1010FE00481234287BFF7A2B7959E4FD7F5812343D
:10110E0028E55D75F00A8475F00A84E5F0B40A00EE
:10111E00507A901127F828287302114502114D02BA
:10112E00115502115D02116502116D021175021148
:10113E007D02118502118D7BFF7A2279C980467B53
:10114E00FF7A2279D9803E7BFF7A2279E980367B3D
:10115E00FF7A2279F9802E7BFF7A23790980267B0C
:10116E00FF7A237919801E7BFF7A23792980167BDB
:10117E00FF7A237939800E7BFF7A23794980067BAB
:10118E00FF7A2379597D027F381236FEE55D75F0C0
:10119E000A84E5F0B40A00507A9011AEF82828734C
:1011AE000211CC0211D40211DC0211E40211EC0284
:1011BE0011F40211FC02120402120C0212147BFF33
:1011CE007A2279C980467BFF7A2279D9803E7BFFCD
:1011DE007A2279E980367BFF7A2279F9802E7BFF9D
:1011EE007A23790980267BFF7A237919801E7BFF6B
:1011FE007A23792980167BFF7A237939800E7BFF3B
:10120E007A23794980067BFF7A2379597D027F40C4
:10121E001236FE7BFF7A2279D97D047F081236FEC4
:10122E007F101236F67BFF7A2579F97D047F201226
:10123E0034287BFF7A2679197D047F301234287B7F
:10124E00FF7A2679397D047F401234287BFF7A2677
:10125E0079B97D047F501234287BFF7A2679D97DA7
:10126E00047F601234287BFF7A2379997D047F7086
:10127E001236FE7BFF7A2279E97D067F081236FE52
:10128E007BFF7A2279B97D067F101236FE7BFF7ABC
:10129E002B79991234247BFF7A2B79B97D067F3016
:1012AE001234287BFF7A2779797D067F4012342805
:1012BE007BFF7A2779997D067F500222B5E553642C
:1012CE000960030214D87BFF7A2579F9FD7F181285
:1012DE0034287BFF7A267919E4FD7F281234287B87
:1012EE00FF7A267939E4FD7F381234287BFF7A2B7A
:1012FE007939E4FD7F481234287BFF7A2B7959E443
:10130E00FD7F58123428E55D75F00A8475F00A8465
:10131E00E5F0B40A00507A90132CF82828730213C3
:10132E004A02135202135A02136202136A02137212
:10133E0002137A02138202138A0213927BFF7A221D
:10134E0079C980467BFF7A2279D9803E7BFF7A224B
:10135E0079E980367BFF7A2279F9802E7BFF7A231A
:10136E00790980267BFF7A237919801E7BFF7A23E9
:10137E00792980167BFF7A237939800E7BFF7A23B9
:10138E00794980067BFF7A2379597D027F381236A0
:10139E00FEE55D75F00A84E5F0B40A00507A90130C
:1013AE00B3F82828730213D10213D90213E10213E2
:1013BE00E90213F10213F9021401021409021411C5
:1013CE000214197BFF7A2279C980467BFF7A227933
:1013DE00D9803E7BFF7A2279E980367BFF7A2279AB
:1013EE00F9802E7BFF7A23790980267BFF7A237979
:1013FE0019801E7BFF7A23792980167BFF7A237949
:10140E0039800E7BFF7A23794980067BFF7A237918
:10141E00597D027F401236FE7BFF7A2279D97D04F8
:10142E007F081236FE7BFF7A2279B97D047F101277
:10143E0036FE7BFF7A2579F97D047F201234287BD6
:10144E00FF7A2679197D047F301234287BFF7A26A5
:10145E0079397D047F401234287BFF7A2679B97D55
:10146E00047F501234287BFF7A2679D97D047F6061
:10147E001234287BFF7A2279E97D067F081236FE28
:10148E007BFF7A2279B97D067F101236FE7BFF7ABA
:10149E002B79991234247BFF7A2B79B97D067F3014
:1014AE001234287BFF7A2779797D067F4012342803
:1014BE007BFF7A2779997D067F501234287BFF7A3D
:1014CE002379997D067F70021A64E553640A6003DE
:1014DE000217517BFF7A2579F9FD7F181234287B8C
:1014EE00FF7A267919E4FD7F281234287BFF7A26AD
:1014FE007939E4FD7F381234287BFF7A2679B9E4F6
:10150E00FD7F481234287BFF7A2679D9E4FD7F5877
:10151E001234287BFF7A2879397D02E4FF123428B1
:10152E007BFF7A2879797D027F101234287BFF7A2F
:10153E002C79197D027F201234287BFF7A2C793981
:10154E007D027F301234287BFF7A2579997D027FC8
:10155E00401234287BFF7A2979197D027F5012348C
:10156E00287BFF7A2A79397D027F601234287BFF2F
:10157E007A2579997D027F70123428E55D75F00A1F
:10158E008475F00A84E5F0B40A00507A9015A1F83B
:10159E002828730215BF0215C70215CF0215D702F0
:1015AE0015DF0215E70215EF0215F70215FF0216F9
:1015BE00077BFF7A2279C980467BFF7A2279D98010
:1015CE003E7BFF7A2279E980367BFF7A2279F98099
:1015DE002E7BFF7A23790980267BFF7A2379198067
:1015EE001E7BFF7A23792980167BFF7A2379398037
:1015FE000E7BFF7A23794980067BFF7A2379597D0A
:10160E00047F381236FEE55D75F00A84E5F0B40A03
:10161E0000507A901628F828287302164602164EA5
:10162E0002165602165E02166602166E0216760234
:10163E00167E02168602168E7BFF7A2279C98046A6
:10164E007BFF7A2279D9803E7BFF7A2279E9803638
:10165E007BFF7A2279F9802E7BFF7A237909802607
:10166E007BFF7A237919801E7BFF7A2379298016D6
:10167E007BFF7A237939800E7BFF7A2379498006A6
:10168E007BFF7A2379597D047F401236FEE5547B29
:10169E00FF70087A2379B97D0680077A2479B97D9F
:1016AE0006E4FF123428E5557BFF70067A2379D9BC
:1016BE0080047A2479B97D067F10123428E5567B92
:1016CE00FF70067A2379F980047A2479B9123424CA
:1016DE00E5577BFF70067A24791980047A2479B94C
:1016EE007D067F30123428E5587BFF70067A247908
:1016FE003980047A2479B97D067F40123428E55961
:10170E007BFF70067A24795980047A2479B97D0694
:10171E007F50123428E55A7BFF70067A247979803F
:10172E00047A2479B97D067F60123428E55B7BFF4D
:10173E0070067A24799980047A2479B97D067F70AF
:10174E000222B5E553640B6003021A677BFF7A2B06
:10175E007999FD7F101234287BFF7A2B79B9E4FD3D
:10176E007F201234287BFF7A2579F9E4FD7F301231
:10177E0034287BFF7A267919E4FD7F401234287BCA
:10178E00FF7A277979E4FD7F501234287BFF7A2780
:10179E007999E4FD7F60123428E55D75F00A847551
:1017AE00F00A84E5F0B40A00507A9017BFF82828A2
:1017BE00730217DD0217E50217ED0217F50217FD8A
:1017CE0002180502180D02181502181D0218257BA5
:1017DE00FF7A2279C980467BFF7A2279D9803E7BB7
:1017EE00FF7A2279E980367BFF7A2279F9802E7B87
:1017FE00FF7A23790980267BFF7A237919801E7B55
:10180E00FF7A23792980167BFF7A237939800E7B24
:10181E00FF7A23794980067BFF7A2379597D027FEF
:10182E00381236FEE55D75F00A84E5F0B40A005014
:10183E007A901846F828287302186402186C021859
:10184E007402187C02188402188C02189402189CD8
:10185E000218A40218AC7BFF7A2279C980467BFF5E
:10186E007A2279D9803E7BFF7A2279E980367BFF16
:10187E007A2279F9802E7BFF7A23790980267BFFE5
:10188E007A237919801E7BFF7A23792980167BFFB4
:10189E007A237939800E7BFF7A23794980067BFF84
:1018AE007A2379597D027F401236FE7BFF7A2779A3
:1018BE00B97D04E4FF1234287BFF7A2779D97D04A1
:1018CE007F101234287BFF7A2779797D047F2012CE
:1018DE0034287BFF7A2779997D047F301234287F54
:1018EE00401236F6E54AC394017BFF40067A23790F
:1018FE006980047A2379797D047F481236FEE54AA1
:10190E00C394027BFF40067A23796980047A237997
:10191E00797D047F501236FEE54AC394037BFF4067
:10192E00067A23796980047A2379797D047F5812A7
:10193E0036FEE54AC394047BFF40067A237969801C
:10194E00047A2379797D047F601236FEE54AC394CA
:10195E00057BFF40067A23796980047A2379797DA5
:10196E00047F681236FEE54AC394067BFF40067A72
:10197E0023796980047A2379797D047F701236FE8B
:10198E007BFF7A2A79797D06E4FF1234287BFF7A71
:10199E002679F97D067F101234287BFF7A2779B9D4
:1019AE001234247BFF7A2779D97D067F30123428B2
:1019BE007BFF7A2279B97D067F401236FEE54AC357
:1019CE0094077BFF40067A23796980047A2379791C
:1019DE007D067F481236FEE54AC394087BFF40061B
:1019EE007A23796980047A2379797D067F501236BD
:1019FE00FEE54AC394097BFF40067A237969800489
:101A0E007A2379797D067F581236FEE54AC3940A09
:101A1E007BFF40067A23796980047A2379797D06E3
:101A2E007F601236FEE54AC3940B7BFF40067A2395
:101A3E00796980047A2379797D067F681236FEE50E
:101A4E004AC3940C7BFF40067A23796980047A237B
:101A5E0079797D067F700236FEE553640C600302D1
:101A6E001BFF7BFF7A2C7959FD7F201234287BFFD8
:101A7E007A2C7979E4FD7F301234287BFF7A2B792A
:101A8E0039E4FD7F401234287BFF7A2B7959E4FD2F
:101A9E007F50123428E55D75F00A8475F00A84E5EE
:101AAE00F0B40A00507A901ABBF8282873021AD99B
:101ABE00021AE1021AE9021AF1021AF9021B0102D4
:101ACE001B09021B11021B19021B217BFF7A2279B3
:101ADE00C980467BFF7A2279D9803E7BFF7A2279B4
:101AEE00E980367BFF7A2279F9802E7BFF7A237983
:101AFE000980267BFF7A237919801E7BFF7A237952
:101B0E002980167BFF7A237939800E7BFF7A237921
:101B1E004980067BFF7A2379597D047F381236FE81
:101B2E00E55D75F00A84E5F0B40A00507A901B4228
:101B3E00F8282873021B60021B68021B70021B78B8
:101B4E00021B80021B88021B90021B98021BA00224
:101B5E001BA87BFF7A2279C980467BFF7A2279D92E
:101B6E00803E7BFF7A2279E980367BFF7A2279F9F3
:101B7E00802E7BFF7A23790980267BFF7A237919C1
:101B8E00801E7BFF7A23792980167BFF7A23793991
:101B9E00800E7BFF7A23794980067BFF7A23795961
:101BAE007D047F401236FE7BFF7A2679F97D067F13
:101BBE00101234287BFF7A2579991234247BFF7A10
:101BCE002C79997D067F301234287BFF7A2C79B9D7
:101BDE007D067F401234287BFF7A2679997D067F19
:101BEE00501234287BFF7A2679D97D067F60022237
:101BFE00B5E553640D6003021DF97BFF7A2679B9B2
:101C0E00FD7F201234287BFF7A2679D9E4FD7F30C0
:101C1E001234287BFF7A2A79F9E4FD7F40123428AA
:101C2E007BFF7A2B7919E4FD7F50123428E55D7520
:101C3E00F00A8475F00A84E5F0B40A00507A901C1C
:101C4E0053F8282873021C71021C79021C81021C95
:101C5E0089021C91021C99021CA1021CA9021CB132
:101C6E00021CB97BFF7A2279C980467BFF7A2279E2
:101C7E00D9803E7BFF7A2279E980367BFF7A227902
:101C8E00F9802E7BFF7A23790980267BFF7A2379D0
:101C9E0019801E7BFF7A23792980167BFF7A2379A0
:101CAE0039800E7BFF7A23794980067BFF7A237970
:101CBE00597D027F381236FEE55D75F00A84E5F037
:101CCE00B40A00507A901CDAF8282873021CF80225
:101CDE001D00021D08021D10021D18021D20021DEE
:101CEE0028021D30021D38021D407BFF7A2279C961
:101CFE0080467BFF7A2279D9803E7BFF7A2279E972
:101D0E0080367BFF7A2279F9802E7BFF7A23790940
:101D1E0080267BFF7A237919801E7BFF7A2379290F
:101D2E0080167BFF7A237939800E7BFF7A237949DF
:101D3E0080067BFF7A2379597D027F401236FE7B27
:101D4E00FF7A2779797D047F201234287BFF7A274A
:101D5E0079997D047F301234287BFF7A2D79597D55
:101D6E00047F401234287BFF7A2D79797D047F50D1
:101D7E001234287BFF7A2D79197D047F6012342866
:101D8E007BFF7A2C79D97D047F701234287BFF7A01
:101D9E002C79F97D06E4FF1234287BFF7A277979B6
:101DAE007D067F1012342812341E7BFF7A2D79990E
:101DBE007D067F301234287BFF7A2D79B97D067F20
:101DCE00401234287BFF7A2579F97D067F50123434
:101DDE00287BFF7A2679197D067F601234287BFFD7
:101DEE007A2679397D067F700222B5E553640E603E
:101DFE0003021F917BFF7A2B7999FD7F10123428F5
:101E0E007BFF7A2B79B9E4FD7F201234287BFF7A91
:101E1E002579F9E4FD7F301234287BFF7A26791973
:101E2E00E4FD7F401234287BFF7A277979E4FD7F29
:101E3E00501234287BFF7A277999E4FD7F601234A3
:101E4E0028E55D75F00A8475F00A84E5F0B40A00A1
:101E5E00507A901E67F8282873021E85021E8D0286
:101E6E001E95021E9D021EA5021EAD021EB5021E6D
:101E7E00BD021EC5021ECD7BFF7A2279C980467B2C
:101E8E00FF7A2279D9803E7BFF7A2279E980367BF0
:101E9E00FF7A2279F9802E7BFF7A23790980267BBF
:101EAE00FF7A237919801E7BFF7A23792980167B8E
:101EBE00FF7A237939800E7BFF7A23794980067B5E
:101ECE00FF7A2379597D027F381236FEE55D75F073
:101EDE000A84E5F0B40A00507A901EEEF8282873B2
:101EEE00021F0C021F14021F1C021F24021F2C02B1
:101EFE001F34021F3C021F44021F4C021F547BFF63
:101F0E007A2279C980467BFF7A2279D9803E7BFF7F
:101F1E007A2279E980367BFF7A2279F9802E7BFF4F
:101F2E007A23790980267BFF7A237919801E7BFF1D
:101F3E007A23792980167BFF7A237939800E7BFFED
:101F4E007A23794980067BFF7A2379597D027F4077
:101F5E001236FE7BFF7A2B79991234247BFF7A2B73
:101F6E0079B97D067F301234287BFF7A2979797D05
:101F7E00067F401234287BFF7A2979997D067F509F
:101F8E000222B5E553640F60030221297BFF7A2BF1
:101F9E007999FD7F101234287BFF7A2B79B9E4FDF5
:101FAE007F201234287BFF7A2579F9E4FD7F3012E9
:101FBE0034287BFF7A267919E4FD7F401234287B82
:101FCE00FF7A277979E4FD7F501234287BFF7A2738
:101FDE007999E4FD7F60123428E55D75F00A847509
:101FEE00F00A84E5F0B40A00507A901FFFF8282812
:101FFE007302201D02202502202D02203502203DD5
:10200E0002204502204D02205502205D0220657BF4
:10201E00FF7A2279C980467BFF7A2279D9803E7B6E
:10202E00FF7A2279E980367BFF7A2279F9802E7B3E
:10203E00FF7A23790980267BFF7A237919801E7B0C
:10204E00FF7A23792980167BFF7A237939800E7BDC
:10205E00FF7A23794980067BFF7A2379597D027FA7
:10206E00381236FEE55D75F00A84E5F0B40A0050CC
:10207E007A902086F82828730220A40220AC022031
:10208E00B40220BC0220C40220CC0220D40220DCE8
:10209E000220E40220EC7BFF7A2279C980467BFF86
:1020AE007A2279D9803E7BFF7A2279E980367BFFCE
:1020BE007A2279F9802E7BFF7A23790980267BFF9D
:1020CE007A237919801E7BFF7A23792980167BFF6C
:1020DE007A237939800E7BFF7A23794980067BFF3C
:1020EE007A2379597D027F401236FE7BFF7A2B7957
:1020FE00991234247BFF7A2B79B97D067F30123406
:10210E00287BFF7A2A79F97D067F401234287BFFDF
:10211E007A2B79197D067F500222B5E55364106043
:10212E00030222B87BFF7A2579F9FD7F1812342835
:10213E007BFF7A267919E4FD7F281234287BFF7AFB
:10214E00267939E4FD7F381234287BFF7A2A79B953
:10215E00E4FD7F481234287BFF7A2A79D9E4FD7F8B
:10216E0058123428E55D75F00A8475F00A84E5F09E
:10217E00B40A00507A90218AF82828730221A80206
:10218E0021B00221B80221C00221C80221D00221B1
:10219E00D80221E00221E80221F07BFF7A2279C9E0
:1021AE0080467BFF7A2279D9803E7BFF7A2279E9BD
:1021BE0080367BFF7A2279F9802E7BFF7A2379098C
:1021CE0080267BFF7A237919801E7BFF7A2379295B
:1021DE0080167BFF7A237939800E7BFF7A2379492B
:1021EE0080067BFF7A2379597D047F381236FEE50F
:1021FE005D75F00A84E5F0B40A00507A902211F869
:10220E0028287302222F02223702223F022247027F
:10221E00224F02225702225F02226702226F0222FF
:10222E00777BFF7A2279C980467BFF7A2279D98023
:10223E003E7BFF7A2279E980367BFF7A2279F9801C
:10224E002E7BFF7A23790980267BFF7A23791980EA
:10225E001E7BFF7A23792980167BFF7A23793980BA
:10226E000E7BFF7A23794980067BFF7A2379597D8D
:10227E00047F401236FE7BFF7A2779797D067F1820
:10228E001234287BFF7A2779997D067F281234280D
:10229E007BFF7A2D79597D067F381234287BFF7AA1
:0B22AE002D79797D067F48123428222C
:0E3E8E00758901E4F58A758C4CD28CD2A9227C
:103DA30053877F759850538EBF538EFE53890F43AD
:0D3DB3008920758BFD758DFDC2ABD28E226F
:1037EB00E4FDFB75900F7F37FE123EB4E590640F3E
:1037FB0070030238A92002030238ABC202AD9075E8
:10380B0090F0E59064F070030238ABE5904D1239FF
:10381B0014385F7738737B38877D389B7E385AB77F
:10382B00386EBB3882BD3896BE3855D73869DB3811
:10383B007DDD3891DE3850E73864EB3878ED388C25
:10384B00EE0000389E755E018049755E02804475FE
:10385B005E03803F755E0C803A755E048035755E45
:10386B00058030755E06802B755E0D8026755E07B4
:10387B008021755E08801C755E098017755E0E8051
:10388B0012755E0A800DE4F55E8008755E0B800391
:10389B00755E0F755C01E5536006755D0A22D202F9
:0138AB0022FA
:102DD900E55E6410700302341DE5537033E55EB49B
:102DE9000C0C755E10755D0A755301022FB9E55E0D
:102DF900B40D0A755E10755D0A75530222E55E64AD
:102E09000E600302341D755E10755D0A7553072245
:102E1900E55364016003022F49E55EC3940040272E
:102E2900E55ED394095020E54AC394065013740C07
:102E3900254AF582E43400F583E55EF0054A02335C
:102E490007755C04023307E55EB40A10755E10E588
:102E59004AD39400500302341D154A22E55E640BDF
:102E69006003022F3D755E10E54A64066003023176
:102E79001BE5547014755401123E56755201123BEC
:102E8900BE756028C2B0022F36E55570147555011C
:102E9900123E56755202123BBE756128C2B1022F0D
:102EA90036E5567014755601123E56755203123B9B
:102EB900BE756228C2B2022F36E5577014755701E4
:102EC900123E56755204123BBE756328C2B3022FD7
:102ED90036E5587014755801123E56755205123B65
:102EE900BE756428C2B4022F36E5597014755901AC
:102EF900123E56755206123BBE756528C2B5022FA1
:102F090036E55A7013755A01123E56755207123B2F
:102F1900BE754728C2B68015E55B7011755B011255
:102F29003E56755208123BBE754828C2B7755D03F7
:102F390075530422E55E640F600302341D023259A1
:102F4900E5536402707CE55EC394004020E55ED3DE
:102F590094095019E54A9401500D855E52E54A6479
:102F6900016007054A8003755C04023307E55EB416
:102F79000A10755E10E54AD39400500302341D15FA
:102F89004A22E55EB40F0302331AE55E640B60035F
:102F990002341D755E10E54A64017022E552601E17
:102FA9006409601A74532552F8E6B401077553038E
:102FB900E4F54A22755C04755D0175530C22755C54
:102FC9000A22E5536403600302312BE55EC39400D2
:102FD9004026E55ED39409501FE54AC39406501272
:102FE900740C254AF582E43400F583E55EF0054A60
:102FF9008003755C04023307E55EB40A10755E1040
:10300900E54AD39400500302341D154A22E55E6453
:103019000B600302311F755E10E54A640660030206
:10302900311BAF52FE123E3490000CE0FF900000BD
:10303900E06F600302311590000DE0FF900001E0A0
:103049006F600302311590000EE0FF900002E06FFF
:10305900600302311590000FE0FF900003E06F60FC
:1030690003023115900010E0FF900004E06F600347
:10307900023115900011E0FF900005E06F60030236
:103089003115F526F527F528F529F52AF52BF52C1F
:1030990085522DFBFAFDFCFF123BE974532552F8CA
:1030A900E4F6755305755D01123E56E55214B408F0
:1030B90000400302341D9030CD75F003A4C583256B
:1030C900F0C583730230E50230EB0230F10230F7CC
:1030D9000230FD02310302310902310F756028C245
:1030E900B022756128C2B122756228C2B222756305
:1030F90028C2B322756428C2B422756528C2B522D4
:10310900754728C2B622754828C2B72275530D02E1
:10311900341A755C0422E55E640F600302341D02F3
:103129003259E55364046011E553640F600BE553AC
:10313900640E6005E553B4101FE55E641070030268
:10314900341DE553640F6005E553B40E0575530846
:103159008003E4F553023307E55364076003023241
:1031690017E55EC394004026E55ED39409501FE538
:103179004AC394065012740C254AF582E43400F5CA
:1031890083E55EF0054A8003755C04023307E55E5A
:10319900B40A10755E10E54AD39400500302341D39
:1031A900154A22E55E640B705A755E10E54A64069D
:1031B900600302341D90000CE0FF64017018A3E065
:1031C900B40313A3E0B4010EA3E0B40409A3E0B46B
:1031D9000204A3E06021EF654B702290000DE065C9
:1031E9004C701AA3E0B54D15A3E0B54E10A3E0B598
:1031F9004F0BA3E0B55006E4F54A0233117553109D
:1032090002341AE55E640F600302341D8042E553FF
:1032190064086006E5536409703CE55EB40106750F
:10322900530802336BE55EB4020675530902336B2A
:10323900E55EB40B12755E10E553B4080475530AC4
:103249002275530BC20322E55E640F600302341D2D
:10325900755E10023396E553640A6003023322E572
:103269005EC394015003023309E55ED39408400319
:10327900023309855E52E4F526F527F528F529F587
:103289002AF52BF52C85522DFBFAFDFCFF123BE9A3
:1032990074532552F8E4F6123E56E55214B4080068
:1032A900505C9032B975F003A4C58325F0C58373CA
:1032B9000232D10232D80232DF0232E60232ED02A4
:1032C90032F40232FB023302756028C2B0802F75D6
:1032D9006128C2B18028756228C2B280217563282D
:1032E900C2B3801A756428C2B48013756528C2B543
:1032F900800C754728C2B68005754828C2B7806218
:10330900E55EB40B07755E1075530822E55EB40FD0
:1033190006755E10E480768049E553640B6003020C
:10332900341DE55EC39400403DE55ED394095036F3
:10333900200312E54AC394065028740C254AF582E5
:10334900E434008016E54AC394064016E54A940C15
:1033590050107400254AF582E43400F583E55EF0E7
:10336900054A755E1022E55EB40A19755E10E54AD4
:10337900D394004002154AE54AD394054003023428
:103389001DC20322E55EB40F09755E10E4F54AF526
:103399005322E55E640B707C755E10E54AB4060243
:1033A900D203E54A640C706C900006E0FF90000CB3
:1033B900E06F705A900007E0FF90000DE06F704ECB
:1033C900900008E0FF90000EE0FE6F704190000948
:1033D900E0FF90000FE0FD6F703490000AE0FF906D
:1033E9000010E0FC6F702790000BE0FF900011E0E7
:1033F900FBB5071A90000CE0F54BA3E0F54C8E4D98
:103409008D4E8C4F8B50123E7275530E800375533F
:053419000F755D0222A9
:103B2000E560600415608002D2B0E5616004156153
:103B30008002D2B1E562600415628002D2B2E56310
:103B4000600415638002D2B3E564600415648002EA
:103B5000D2B4E565600415658002D2B5E54760041E
:103B600015478002D2B6E5486003154822D2B72235
:103DC000123E8ED2AF123CD4123DF6123E64123E29
:0C3DD000801237EB12000E122DD980F586
:03000B00023AC6F0
:103AC600C0E0C0F0C0D0758C3C758AB0055F123B73
:103AD60020E55C60086008155CB2858002D285E549
:103AE6005F75F00A84E5F07002B201E55FC39414D5
:103AF6004021755F00E55D6004155D8016E5536441
:103B06000F6005E553B40E08755D0A75530880030A
:0A3B1600755300D0D0D0F0D0E0329B
:0300000002393A88
:0C393A00787FE4F6D8FD758165023981C4
:1038AC00BB010689828A83E0225002E722BBFE021A
:0938BC00E32289828A83E493224D
:1038C500BB010CE58229F582E5833AF583E02250B8
:1038D50006E92582F8E622BBFE06E92582F8E22202
:0D38E500E58229F582E5833AF583E493221C
:1038F200F8BB010DE58229F582E5833AF583E8F00C
:10390200225006E92582C8F622BBFE05E92582C8B7
:02391200F2229F
:10391400D083D082F8E4937012740193700DA3A342
:1039240093F8740193F5828883E473740293686056
:06393400EFA3A3A380DF56
:10394600023DC0E493A3F8E493A34003F68001F29A
:1039560008DFF48029E493A3F85407240CC8C33382
:10396600C4540F4420C8834004F456800146F6DF51
:10397600E4800B0102040810204080903B70E47E36
:10398600019360BCA3FF543F30E509541FFEE49346
:10399600A360010ECF54C025E060A840B8E493A30D
:1039A600FAE493A3F8E493A3C8C582C8CAC583CA38
:1039B600F0A3C8C582C8CAC583CADFE9DEE780BEF0
:013BBD000007
:00000001FF
